{"abi":[{"type":"constructor","inputs":[{"name":"_heir","type":"address","internalType":"address"}],"stateMutability":"payable"},{"type":"receive","stateMutability":"payable"},{"type":"function","name":"IDLE_PERIOD","inputs":[],"outputs":[{"name":"","type":"uint256","internalType":"uint256"}],"stateMutability":"view"},{"type":"function","name":"claimOwnership","inputs":[],"outputs":[],"stateMutability":"nonpayable"},{"type":"function","name":"heir","inputs":[],"outputs":[{"name":"","type":"address","internalType":"address"}],"stateMutability":"view"},{"type":"function","name":"lastPing","inputs":[],"outputs":[{"name":"","type":"uint256","internalType":"uint256"}],"stateMutability":"view"},{"type":"function","name":"owner","inputs":[],"outputs":[{"name":"","type":"address","internalType":"address"}],"stateMutability":"view"},{"type":"function","name":"setHeir","inputs":[{"name":"_newHeir","type":"address","internalType":"address"}],"outputs":[],"stateMutability":"nonpayable"},{"type":"function","name":"withdraw","inputs":[{"name":"amount","type":"uint256","internalType":"uint256"}],"outputs":[],"stateMutability":"nonpayable"},{"type":"event","name":"HeirChanged","inputs":[{"name":"previous","type":"address","indexed":true,"internalType":"address"},{"name":"newHeir","type":"address","indexed":true,"internalType":"address"}],"anonymous":false},{"type":"event","name":"OwnershipTaken","inputs":[{"name":"previousOwner","type":"address","indexed":true,"internalType":"address"},{"name":"newOwner","type":"address","indexed":true,"internalType":"address"}],"anonymous":false},{"type":"event","name":"Ping","inputs":[{"name":"by","type":"address","indexed":true,"internalType":"address"},{"name":"at","type":"uint256","indexed":false,"internalType":"uint256"}],"anonymous":false},{"type":"event","name":"Withdrawl","inputs":[{"name":"by","type":"address","indexed":true,"internalType":"address"},{"name":"amount","type":"uint256","indexed":false,"internalType":"uint256"}],"anonymous":false}],"bytecode":{"object":"0x6080604052604051610ea5380380610ea58339818101604052810190610025919061017d565b5f73ffffffffffffffffffffffffffffffffffffffff168173ffffffffffffffffffffffffffffffffffffffff1603610093576040517f08c379a000000000000000000000000000000000000000000000000000000000815260040161008a90610202565b60405180910390fd5b335f5f6101000a81548173ffffffffffffffffffffffffffffffffffffffff021916908373ffffffffffffffffffffffffffffffffffffffff1602179055508060015f6101000a81548173ffffffffffffffffffffffffffffffffffffffff021916908373ffffffffffffffffffffffffffffffffffffffff1602179055504260028190555050610220565b5f5ffd5b5f73ffffffffffffffffffffffffffffffffffffffff82169050919050565b5f61014c82610123565b9050919050565b61015c81610142565b8114610166575f5ffd5b50565b5f8151905061017781610153565b92915050565b5f602082840312156101925761019161011f565b5b5f61019f84828501610169565b91505092915050565b5f82825260208201905092915050565b7f48656972203d207a65726f0000000000000000000000000000000000000000005f82015250565b5f6101ec600b836101a8565b91506101f7826101b8565b602082019050919050565b5f6020820190508181035f830152610219816101e0565b9050919050565b610c788061022d5f395ff3fe608060405260043610610073575f3560e01c80634e71e0c81161004d5780634e71e0c8146100f85780638da5cb5b1461010e57806391f2ebb814610138578063ca285630146101625761007a565b806323defc771461007e5780632760c57e146100a65780632e1a7d4d146100d05761007a565b3661007a57005b5f5ffd5b348015610089575f5ffd5b506100a4600480360381019061009f9190610848565b61018c565b005b3480156100b1575f5ffd5b506100ba610346565b6040516100c7919061088b565b60405180910390f35b3480156100db575f5ffd5b506100f660048036038101906100f191906108ce565b61034c565b005b348015610103575f5ffd5b5061010c610577565b005b348015610119575f5ffd5b5061012261079a565b60405161012f9190610908565b60405180910390f35b348015610143575f5ffd5b5061014c6107be565b6040516101599190610908565b60405180910390f35b34801561016d575f5ffd5b506101766107e3565b604051610183919061088b565b60405180910390f35b5f5f9054906101000a900473ffffffffffffffffffffffffffffffffffffffff1673ffffffffffffffffffffffffffffffffffffffff163373ffffffffffffffffffffffffffffffffffffffff161461021a576040517f08c379a00000000000000000000000000000000000000000000000000000000081526004016102119061097b565b60405180910390fd5b5f73ffffffffffffffffffffffffffffffffffffffff168173ffffffffffffffffffffffffffffffffffffffff1603610288576040517f08c379a000000000000000000000000000000000000000000000000000000000815260040161027f906109e3565b60405180910390fd5b8073ffffffffffffffffffffffffffffffffffffffff1660015f9054906101000a900473ffffffffffffffffffffffffffffffffffffffff1673ffffffffffffffffffffffffffffffffffffffff167f4e6093f85fa64484abd692810d8a44d508792ff7b7a021d9fbd69fa1c6ff18a060405160405180910390a38060015f6101000a81548173ffffffffffffffffffffffffffffffffffffffff021916908373ffffffffffffffffffffffffffffffffffffffff16021790555050565b60025481565b5f5f9054906101000a900473ffffffffffffffffffffffffffffffffffffffff1673ffffffffffffffffffffffffffffffffffffffff163373ffffffffffffffffffffffffffffffffffffffff16146103da576040517f08c379a00000000000000000000000000000000000000000000000000000000081526004016103d19061097b565b60405180910390fd5b426002819055503373ffffffffffffffffffffffffffffffffffffffff167ffd8d0c1dc3ab254ec49463a1192bb2423b3b851adedec1aa94dcd362dc063c9d600254604051610429919061088b565b60405180910390a25f811115610574578047101561047c576040517f08c379a000000000000000000000000000000000000000000000000000000000815260040161047390610a4b565b60405180910390fd5b5f3373ffffffffffffffffffffffffffffffffffffffff16826040516104a190610a96565b5f6040518083038185875af1925050503d805f81146104db576040519150601f19603f3d011682016040523d82523d5f602084013e6104e0565b606091505b5050905080610524576040517f08c379a000000000000000000000000000000000000000000000000000000000815260040161051b90610af4565b60405180910390fd5b3373ffffffffffffffffffffffffffffffffffffffff167f65ac0d8bb8cbc0e989ebd02ddc5161d7c499f7c21792e43fcf170314fe6bcc3f8360405161056a919061088b565b60405180910390a2505b50565b60015f9054906101000a900473ffffffffffffffffffffffffffffffffffffffff1673ffffffffffffffffffffffffffffffffffffffff163373ffffffffffffffffffffffffffffffffffffffff1614610606576040517f08c379a00000000000000000000000000000000000000000000000000000000081526004016105fd90610b5c565b60405180910390fd5b62278d006002546106179190610ba7565b421015610659576040517f08c379a000000000000000000000000000000000000000000000000000000000815260040161065090610c24565b60405180910390fd5b5f5f5f9054906101000a900473ffffffffffffffffffffffffffffffffffffffff16905060015f9054906101000a900473ffffffffffffffffffffffffffffffffffffffff165f5f6101000a81548173ffffffffffffffffffffffffffffffffffffffff021916908373ffffffffffffffffffffffffffffffffffffffff1602179055505f60015f6101000a81548173ffffffffffffffffffffffffffffffffffffffff021916908373ffffffffffffffffffffffffffffffffffffffff1602179055505f5f9054906101000a900473ffffffffffffffffffffffffffffffffffffffff1673ffffffffffffffffffffffffffffffffffffffff168173ffffffffffffffffffffffffffffffffffffffff167fbedcf290cbec9017e1f65a01fed8e5e2c76cb1d77d9d3ddb332fe29256ed353260405160405180910390a350565b5f5f9054906101000a900473ffffffffffffffffffffffffffffffffffffffff1681565b60015f9054906101000a900473ffffffffffffffffffffffffffffffffffffffff1681565b62278d0081565b5f5ffd5b5f73ffffffffffffffffffffffffffffffffffffffff82169050919050565b5f610817826107ee565b9050919050565b6108278161080d565b8114610831575f5ffd5b50565b5f813590506108428161081e565b92915050565b5f6020828403121561085d5761085c6107ea565b5b5f61086a84828501610834565b91505092915050565b5f819050919050565b61088581610873565b82525050565b5f60208201905061089e5f83018461087c565b92915050565b6108ad81610873565b81146108b7575f5ffd5b50565b5f813590506108c8816108a4565b92915050565b5f602082840312156108e3576108e26107ea565b5b5f6108f0848285016108ba565b91505092915050565b6109028161080d565b82525050565b5f60208201905061091b5f8301846108f9565b92915050565b5f82825260208201905092915050565b7f4e6f74206f776e657200000000000000000000000000000000000000000000005f82015250565b5f610965600983610921565b915061097082610931565b602082019050919050565b5f6020820190508181035f83015261099281610959565b9050919050565b7f48656972203d207a65726f0000000000000000000000000000000000000000005f82015250565b5f6109cd600b83610921565b91506109d882610999565b602082019050919050565b5f6020820190508181035f8301526109fa816109c1565b9050919050565b7f696e73756666696369656e742062616c616e63650000000000000000000000005f82015250565b5f610a35601483610921565b9150610a4082610a01565b602082019050919050565b5f6020820190508181035f830152610a6281610a29565b9050919050565b5f81905092915050565b50565b5f610a815f83610a69565b9150610a8c82610a73565b5f82019050919050565b5f610aa082610a76565b9150819050919050565b7f5472616e73666572206661696c656400000000000000000000000000000000005f82015250565b5f610ade600f83610921565b9150610ae982610aaa565b602082019050919050565b5f6020820190508181035f830152610b0b81610ad2565b9050919050565b7f4e6f7420686569720000000000000000000000000000000000000000000000005f82015250565b5f610b46600883610921565b9150610b5182610b12565b602082019050919050565b5f6020820190508181035f830152610b7381610b3a565b9050919050565b7f4e487b71000000000000000000000000000000000000000000000000000000005f52601160045260245ffd5b5f610bb182610873565b9150610bbc83610873565b9250828201905080821115610bd457610bd3610b7a565b5b92915050565b7f4f776e65722061637469766500000000000000000000000000000000000000005f82015250565b5f610c0e600c83610921565b9150610c1982610bda565b602082019050919050565b5f6020820190508181035f830152610c3b81610c02565b905091905056fea2646970667358221220ac8bdf85ace2ac37183c2ee7a874c582be50707c805febf087b4c4559128e70e64736f6c634300081e0033","linkReferences":{}},"methodIdentifiers":{"IDLE_PERIOD()":"ca285630","claimOwnership()":"4e71e0c8","heir()":"91f2ebb8","lastPing()":"2760c57e","owner()":"8da5cb5b","setHeir(address)":"23defc77","withdraw(uint256)":"2e1a7d4d"},"id":0}